:020000001028C6
:10000800FE00030EF6000408F7000A08F800831241
:1000180003137F08F900272A642C83120313B00105
:10002800B12383120313A0010314A00D0030802311
:10003800A4211E2883120313871823282428C428E0
:100048008B13071702304C24322483120313AD009C
:100058002D08B1000713F930AD000000AD0B3128B1
:100068003528000083120313071701304C2432246B
:1000780083120313AD002D08B2000713F930AD0049
:100088000000AD0B442848280000A028871B4D28F5
:100098004E2874283208A401A4073108A301A30735
:1000A8009322831203132408B201B2072308B10173
:1000B800B1073208A101A1073108A001A00708244F
:1000C800023083120313AF000430AE00BA30AD0023
:1000D800AD0B6C28AE0B6C28AF0B6C280000A02869
:1000E800861877287828A0283208A101A1073108A6
:1000F800A001A007EF22831203132108B201B2075F
:100108002008B101B1073208A101A1073108A001F7
:10011800A0070824023083120313AF000430AE0096
:10012800BA30AD00AD0B9628AE0B9628AF0B9628CB
:100138000000A028A028A02883120313871CA52844
:10014800A6284A28A7283208A601A6073108A5012B
:10015800A5073F238312031307170A304C243224C0
:1001680083120313AD002D08B0000713F930AD005A
:100178000000AD0BBC28C02800008B108B171E2870
:100188000719C728C8281E288B1307170D304C24B9
:10019800322483120313AD002D08B1000713F93080
:1001A800AD000000AD0BD528D92800008312031339
:1001B80007170C304C24322483120313AD002D088A
:1001C800B2000713F930AD000000AD0BE828EC28A9
:1001D8000000831203133208A101A1073108A0010E
:1001E800A00708244D29871BFA28FB282129320853
:1001F800A401A4073108A301A307932283120313C0
:100208002408B201B2072308B101B1073208A101DD
:10021800A1073108A001A0070824023083120313A4
:10022800AF000430AE00BA30AD00AD0B1929AE0BEB
:100238001929AF0B192900004D29861824292529C9
:100248004D293208A101A1073108A001A007EF221A
:10025800831203132108B201B2072008B101B107C4
:100268003208A101A1073108A001A0070824023023
:1002780083120313AF000430AE00BA30AD00AD0BEB
:100288004329AE0B4329AF0B432900004D294D29C3
:100298004D2983120313071D52295329F72854297E
:1002A8003208A301A3073108A201A207E1238312A0
:1002B8000313071702304C24322483120313AD00B2
:1002C8002D08B1000713F930AD000000AD0B692906
:1002D8006D29000083120313071701304C243224C0
:1002E80083120313AD002D08B2000713F930AD00D7
:1002F8000000AD0B7C29802900008312031332080B
:10030800A101A1073108A001A00708248312031343
:1003180007170A304C24322483120313AD002D082A
:10032800B0000713F930AD000000AD0B98299C29E7
:1003380000008B108B171E281E281E281E28102828
:10034800523083120313A8002808A900AA017230AA
:10035800A8002808AB00AC0107178F304C240030E8
:100368004C24831203130713F930A8000000A80BCC
:10037800BA29BE2900008312031307178F304C24B3
:1003880007304C24831203130713F930A800000028
:10039800A80BCB29CF290000831203132A08A60132
:1003A800A6072908A501A5073F23831203132C08D4
:1003B800A301A3072B08A201A207E12383120313B9
:1003C800071787304C2400304C248312031307137B
:1003D800F930A8000000A80BEE29F22900008312CA
:1003E8000313071788304C2480304C2483120313DE
:1003F8000713F930A8000000A80BFF29032A000002
:1004080083120313071789304C2480304C2483123D
:1004180003130713F930A8000000A80B102A142AA8
:1004280000008312031307178A304C2480304C24B1
:10043800831203130713F930A8000000A80B212A20
:10044800252A000008008B1C2A2A2B2A862AFA0152
:1004580007170A3056244024F5007508FA0083125D
:1004680003130713F930F5000000F50B382A3C2A6E
:100478000000F930F5000000F50B3F2A432A000080
:100488008312031307170E3056244024F50075080D
:10049800FA00831203130713F930F5000000F50B77
:1004A800522A562A000083120313071702305624D3
:1004B8004024F5007508FB00831203130713F93075
:1004C800F5000000F50B652A692A00008312031362
:1004D8000717013056244024F5007508FC008312E4
:1004E80003130713F930F5000000F50B782A7C2A6E
:1004F80000007C08F101F1077B08F001F0071D24DA
:100508008B10862A790883120313FF0078088A0063
:1005180077088400760E8300FE0E7E0E0900831293
:1005280003132408593A031D9A2A9B2AAC2AA401CA
:100538002408A101A1072308A001A007EF22831224
:1005480003132108A401A4072008A301A307ED2A87
:100558002408093A031DB12AB22AB72A1030A50087
:100568002508A400ED2A2408193A031DBC2ABD2A2F
:10057800C22A2030A5002508A400ED2A2408293A1B
:10058800031DC72AC82ACD2A3030A5002508A40093
:10059800ED2A2408393A031DD22AD32AD82A403012
:1005A800A5002508A400ED2A2408493A031DDD2AE0
:1005B800DE2AE32A5030A5002508A400ED2A0130E0
:1005C800A5002508A407ED2AED2AED2AED2AED2A33
:1005D800ED2AEE2A0800831203132008513A031D5E
:1005E800F62AF72AFC2A7230A2002208A0003D2B26
:1005F8002008713A031D012B022B072B5230A20051
:100608002208A0003D2B2008493A031D0C2B0D2B76
:10061800122B5030A2002208A0003D2B2008693A76
:10062800031D172B182B1D2B7030A2002208A000C9
:100638003D2B2008523A031D222B232B282B413017
:10064800A2002208A0003D2B2008723A031D2D2B82
:100658002E2B332B6130A2002208A0003D2B013045
:10066800A2002208A0073D2B3D2B3D2B3D2B3D2B07
:100678003D2B3E2B080083120313071782304C24AE
:100688008312031325084C24831203130713F9302C
:10069800A7000000A70B4D2B512B0000831203135A
:1006A800071781304C248312031326084C24831225
:1006B80003130713F930A7000000A70B602B642B66
:1006C800000083120313071780304C2400304C2499
:1006D800831203130713F930A7000000A70B712B2F
:1006E800752B0000831203132608A101A107250812
:1006F800A001A0070824080083120313A2002208FF
:10070800A10021089404A12B1412831603131417B3
:10071800AD2B1412831603131413AD2B1416831662
:1007280003131417AD2B1416831603131413AD2BD0
:100738001412831603131417AD2B83122008840098
:100748000430040203189C2B04308A00603004072C
:1007580082008312031394160800831603130F12E2
:100768008F160F1701138316031788018901831643
:10077800031386018312031386018316031385016D
:10078800831203138501831603138613831203133D
:100798008613831603138711071687120614071387
:1007A800831203130713831603138714071586147C
:1007B80087178B178B100B16080083120313071764
:1007C8008D304C248312031322084C248312031304
:1007D8000713F930A4000000A40BEF2BF32B000043
:1007E8008312031307178C304C2483120313230836
:1007F8004C24831203130713F930A4000000A40B40
:10080800022C062C0000080083120313A401200800
:10081800A20001300310A20DFF3E031D0E2C031091
:10082800220DA3002308A4002408860021088500BF
:100838000800F4017008F20001300310F20DFF3EC9
:10084800031D212C0310720DF3007308F4007408C3
:1008580083120313860071088500080083120313AE
:10086800A301AA304C24831203131308A200220800
:10087800A30023083F2C0800F301AA305624831252
:1008880003131308F2007208F30073084B2C0800D6
:1008980083120313A100210893000330A000A00BCA
:1008A800532C0800F10071088312031393000330DE
:1008B800F000F00B5D2C0800882B8D2B922B972BCA
:0408C800830111286F
:08400000FF3FFF3FFF3FFF3FC0
:04400E00C4E0FFFE0D
:00000001FF
